:100000000C94DC260C9404270C9404270C940427ED
:100010000C9404270C9404270C9404270C940427B4
:100020000C9404270C9404270C9404270C94732B31
:100030000C9404270C9404270C9404270C94042794
:100040000C94292B0C9404270C94F72A0C94D12A95
:100050000C9404270C9404270C9404270C94042774
:100060000C9404270C9404270000000024002700AF
:100070002A0000000000250028002B0000000000DE
:1000800023002600290004040404040404040202DA
:100090000202020203030303030301020408102007
:1000A0004080010204081020010204081020000012
:1000B0000008000201000003040700000000000027
:1000C00000007D7D7E8080808080807E7D7E807E41
:1000D000808080818080807E7D7D7C7D7D7E7E7E37
:1000E000808080808080818281817E7E7E7E7E7D18
:1000F0007C79797A7D7E8181818180808080807E1B
:10010000807E807E7E807E7D7A7A7D7E7E81838306
:1001100082808080807E7E807E7E7E7E807E8080EB
:100120007E7E7E80808080807E807E7E7E7E8080DF
:100130007E7E7E80808080807C797C7E8181807ED6
:100140007D7D7E7E7D7D7D7D7E807E7E7E80807CD1
:100150007C7D7D7E7E7E81817E8082838181807EAA
:100160008185868B858161526C8A856160749D77FB
:10017000748C96A38D8A96A0A08C8C8F867D869099
:100180007E777474747E77646175826A6B756A7D3C
:1001900078707D818379758683838A9595838F9E18
:1001A000989496989888888F87908C8B83797570AF
:1001B000626C756A726B5C43395B59514C61785261
:1001C000565D889079B3C4C5B7CCD4B3B6BAC0B7BE
:1001D00099886C8D8D626567594E53676456665C6D
:1001E0005969728D909B93869595AB988C968A8C65
:1001F0007A6F606073644E677253364C574843643D
:10020000825C7E819B9391BEC6DBBEBEC1C3BE85B0
:1002100095B6906A697C664A51574A4C5662626C40
:100220007E797C858C9FABA8A7A79993A4A7A09063
:100230008B8B7D594C5760483544574E3F36445C54
:1002400053697A776A6FACA49BA6D1FAD2C5C6D798
:10025000CFB99EA0AB8A77796E52565C544C454C10
:1002600045526C54595C708291A298A4ACAC9A9F90
:10027000AE998B8C87755369614F443E57536758CD
:10028000495959746F5C6C669986728598C6A2B399
:10029000E2E6D2C8D8BEABACA09F875F545C6A626E
:1002A000405364575B5F7E66627D69807386A38C72
:1002B000A790998B8A9D6F7E7E727259483E4F69D6
:1002C00054456A6E534D79885F5893BC967E93CAA5
:1002D000E2BC9AD6F4DFBB98A0BB937E7D60524D02
:1002E0005833333E364C4148565274868B8181A335
:1002F000B6CCC4AEB3BEB0A899989880807357337B
:1003000035534336414D5D4637647872656A9E9336
:10031000707495D7B99FAEDDDFBBBCACA9A6A49F16
:100320007C735D646E665D4860544C676B6E787A72
:100330007A707C9A9BA998839D9196887D83797821
:10034000707452405B5949526664574E6193835CA6
:10035000496AB0B07A6FAEDBC085BAF5D4C8A3B233
:10036000B593958782494465565B322D59485B6643
:1003700056676E88877C9498B2C8BAB2ABABABA014
:10038000A0938A867C6945394E523C3246624C368F
:10039000576561595FA09E73627EC5BE959BD7F776
:1003A000C0BABCC3BB9E9F9A94795B6A6E6C544C76
:1003B0005F5B64624D6A80726E6F8A9099A88A98BA
:1003C0009D938B8A98817879706243565C535C5414
:1003D0005C60615B4E6265434F80B293608DB9DBB8
:1003E000AB8FE6E7D2C39FC1B58B8D8D91545C6C0A
:1003F000616024496951614F536E878D6E7590A479
:10040000B7BAB9A6A39A9B96959379747860353A52
:1004100051523E32575F525B645D676A87A299789A
:100420006EA3CFAD9EB9DFD6B6BFB6B2988F93821A
:100430007C56606E5D5B495C65586B5B618086874E
:100440006F789094A7A399A391969088907A7475E9
:10045000755F4E5F54565B58625D4D4A5C79644CE3
:10046000598BA97C598ABFE69F99E7D2D8A8A2C820
:10047000A99F8F93754C605874532C5F5F4E584FF3
:100480005D728280788393A8B3BCBCA7A79FA4A306
:100490009993777A7348414E5F4A313F656231459F
:1004A000545D575BA38A735C82D8A79DA2E2ECB32C
:1004B000CEACCCB69EB6838A72777745655C5959C7
:1004C00048696756707D756B6A96A4A29687A69850
:1004D00090888D91728679775F366265565D526538
:1004E0006B645B526164484A75A79B627AB3D8C556
:1004F0007CD2FFDFBA8AC1CC9F7875A97E524A5957
:100500006F3A364E4E575B465F87796F7396A8AC4D
:10051000C3B3A4B3A39BA2A7A68274856E40314344
:1005200054352C45544A4C4D566C617386AB8070E3
:10053000A2C4CA98BFF0ECCFBCCEB5B1A88C8B7763
:100540006C596158544C40544F66564C6F798061D9
:10055000739D949E9EA09F9598958B948C777A77A7
:100560006656545D564F605D514646596A6159540E
:100570007EB0936582C9E5A39DEEEBD9BBA9C3B25A
:10058000A48D83854F5D4C625B1F545D4C5648645F
:1005900072808A6F7999B1BAB2ACB59EA6AC99A8AF
:1005A0008A8279674E36454A463536625C354A5905
:1005B000655B64A8996F6B90C8ACA8AEE7EBC3CD40
:1005C000B6CCA790A6948A5F57675C564E57574F94
:1005D0005B625375836C776E93A09DAC93A79F8BE2
:1005E00095908F787C817461374E614F5756606764
:1005F00066665670825C4A64ADC36E698FC4E48CD3
:10060000ACE1E6C98BABBCAC90708C695760546BA5
:100610003F355454725940678590787A9AA0B1BE9C
:10062000B6ACB2A39698A29A7770836A362D4A5BCD
:10063000402C4857524549655F65679AA7756F8F8B
:10064000C9B2ABC6D9D4C4D6B5A89F9EA8837257E9
:100650006E755C5249654D577267626C8878777A1F
:100660008BAEA3A0939F98838C8D8F73757E6553FB
:10067000455C545261646B5C6E69667A54495BA454
:10068000BB775786C6D39086D9E9D4B091B6BC86DD
:1006900086838A6E62694E57454A6957705B467415
:1006A00088826F73939AA9B99DA2A081988D9E9418
:1006B00061837A643E32615D584653654F62696278
:1006C00074698796747E96BFAEA0C6DFD3ABC9D1DE
:1006D000B09B8AA49A7453567D7256495B56445D0A
:1006E0006764616A736C777A96A29FA0919D9A95D0
:1006F000957D818383755C4F5967534C5C6C6A5759
:100700006266856E454A6EAEA8665FA0D7DB858FB0
:10071000E4ECD49E9FBABA916A7C70696B56543CE3
:100720003E535C6261495B868C797085A0B3AEAD47
:10073000AEB2A88B98A09D867487734A3644594FF1
:100740003E4156514C455C666773819D787C9AB0FA
:10075000B29FC9ECD7BBC6D2B29890A7A26F565D24
:10076000786B54485F5D4E61646C6E6B787A7C7E0A
:10077000949BA6A28A958F94937480837C6A4D5231
:100780005B60535359626B585964877A465B7AB3FE
:10079000A35B70A7F0CD75ADE7E6BA9AABBEB585A1
:1007A0007A7E666B5951573544585D5F4C4A669066
:1007B0008B747C85A6B9BBABA0BAA493A29B9B7D8E
:1007C0007A8256433F565933324658563A56535911
:1007D0006B7DA9756780B9BC98BED7ECD3CECCAD84
:1007E000B3A4AB9B7C6F6E7C51454D655D415862F7
:1007F0006656727966877996AB9DB0939E9D879970
:100800008A818379735744565C4A465B695B5B789F
:10081000625F66655B5F9DBA8C5486C5E09B86DD32
:10082000E4D7AB91BCAC958583914F5866605D3041
:1008300057735C7753528891907575A39FB2C19B93
:10084000A790879E81967D677C695B28375B4C45C6
:100850003B5D60525D6762667283B5797E9EBACDFC
:100860009EC3E0DBBBB6CFA4958394956A51597AB9
:10087000665946585D4F66666A64758578837CA7BD
:10088000A89FAB94A796939A7E7D7E806B57514F1D
:100890005B4E54586469544D588C8354456EA4A8DB
:1008A0006C5CA2E4DD859ED3D9D8A39AB0B1A47CB8
:1008B000705D6272585C483B57566B6A4E667C8C22
:1008C0007D7E8D8AABB3A49BA7B29593969A8A75C9
:1008D0007C624A45525246445858464E57615961C7
:1008E0008596836582ADAC9BA0DCE9C1C5BABFAC7F
:1008F0009F9F91937478695867545F5B51575B6E03
:100900006B6F6F65827A90A3949D959EA288919358
:100910008194827D624060605B4F486767696C5379
:10092000626B67524C8CA2996166B5DCC97AB6E5F8
:10093000D6D295A9AB9F9A7C8F5862805C673C4564
:10094000655F745D466B8B8A736E8A8CA9B79EA2B5
:1009500094959A8A998677788270373653654E3B9C
:1009600057656F67645C4A788A99826699B0B19DD1
:100970009FD8D7CFBFADB5A7A891806C74877754A7
:10098000465C645F5B586558666F66806F7C8F9BC2
:10099000A894A0A499878891958D79725D61675715
:1009A000544C626B5F655D624D646B5D6C7A9A7DE1
:1009B0007293B2D3A8A0D8D6CEB7B3A89FA3878F7F
:1009C000745477696554365D5D615C4A6E778A7EE2
:1009D0006E8C82A3ADA2A89B9B90919682816B7531
:1009E000754641435254434060705D51596C648078
:1009F0009498737DBAC09F95CCF2DFB6B5BECCB5E6
:100A0000868C8C866F656A4451514F5440645652AF
:100A100072747D65749094A096A0A4A3988698990A
:100A20008F8385815D536E695144585F6C6C564667
:100A30004F835B49608AAB656F99C5C99BBCD7E0A2
:100A4000CFB1A9A9AE958588775169745C4D3E5F99
:100A5000545974456674877A6B9F8A9BAEACA8998B
:100A6000A0989B8D87816E876C4A3648654C484AB2
:100A70006A644E56656664778B94647DA4BBBB8DB7
:100A8000BCF0E5C0A9BFB7AE998C8D697867625399
:100A90004D5D4D545457575F8272706F7A8F8FA996
:100AA000A8969EA6958CA3908582877D595C585CFC
:100AB000534959586A614F48798058576AA98C6BD5
:100AC00083A8D8BAA2BFD8D9C9B99FA49F8B908355
:100AD00057457072593E4E614E7369576B7A9565F2
:100AE0007C9887A9A4A49BA29B999B868A727581F6
:100AF0006249375453434E5C725157617072567756
:100B00008AA3757495BABE94BAE5E6C5A9BAA8AC2D
:100B1000A48C8A6A775F536454564D5264615C5862
:100B2000727E707C7A889596AD9891AE8F8F958CF9
:100B30008C7385744F57535857535D6461604E51A1
:100B40007C7A6458829B876B87BECFBFA8D2CCC803
:100B5000C9B0AD9EA28B85874552776F5335565BE2
:100B6000486767566C7D85697E998AAEB099A09179
:100B7000A2998F90807E6E775D45525C544053748D
:100B800072535464725D5D708F966B8198C1AB96A1
:100B9000CAE9E9B6B0BEA9A9908A826C79575B62AE
:100BA00056574A5B64616060787A627E8290969163
:100BB000AD919FA48199938C8575886153584D5C44
:100BC000585F5B6564564C67867354648F99757281
:100BD000A6BFD1B0BED9C0CFBBAEA4999A858A6654
:100BE000376A77644944695251735D6779807A6ADC
:100BF000938D96B7999D9B98A398887E7A75726A13
:100C00004F4153584340657A5B4659796B596B7C29
:100C10009B7A7A86B1C195B6D6F3CCB5C8ACA89DFF
:100C20009188746E654E5F614E534A60695D6B6674
:100C300087736B8C829F909EAD96AE90909E918CA8
:100C40007A817259534C4E54574A5C6958495283C1
:100C5000795957799E936780B0CCCFA0CED6C4CCBB
:100C6000A7B19E9F947A82484F74615F40515B4662
:100C70006C6C566E798B7579988FACB19EA39EA3E0
:100C800099908C887C6F735D41495857444D736CC3
:100C90004C546B7A5461808D8A66839DC5B29BD11A
:100CA000EAE2BBAEBFA7A698867459775B4D5F4C4E
:100CB0005B515465546762797961867D959E91B2E6
:100CC000A2A6A68A9A96908B7E865F465B4F514C71
:100CD0004F576461535356835C5B728AA464799A5C
:100CE000B9D99BC3E0D4CFACBEA6A49B7A9A754A6F
:100CF00065656C4F3F654D5C734F676E827D5B949D
:100D00008895B39EA48C98968F95818366787A484F
:100D1000454360564860626153547D6E6C6B75A3A9
:100D200078838CB5CD9EC3D6E4CCBCC9A2A89D94D3
:100D30009369656558665C4651525C585B6C5C8093
:100D400077648B749B9E9DB287AC9690A0809580B3
:100D5000818059574C605C46545D6C534F53757796
:100D6000585970AB8F6E74AECEBC9EC3E6C0C9B38B
:100D7000B1A0949D7D905B4470626C3E3F5F516773
:100D80006658647387797293999DB199A4A28CA2D5
:100D90009191837580756945405D5C4D45677856D6
:100DA000565C726C597E8A916F7EA8B1B69DC5E77C
:100DB000DDC9A4BEB5AD9B818A5C75644D624D5D95
:100DC0004A525F57655D7578647E7D8B9696A6A6C0
:100DD0009EA38D8C9B8C907A79724A524F5B564CB5
:100DE000575D755F545770784A7088A07D609BB3DB
:100DF000CDADA7E7C8D2B3B0C091A0838C8B4565B9
:100E00006E6A6233626652705762797C9162809B2F
:100E100088AE9EA2A08598958F8779756E7754408D
:100E20004A575D46536B6A564D6F735F6F748C748F
:100E300077939AC6A3B3D7DCD7B0C4B5A4A08B99D7
:100E400067647456665B545D4A615B5D6A67816F77
:100E500064817E959D99A990A39588A2868A8078C1
:100E60007E595B5B4F5F4C57656C69545278836267
:100E70005D679E906F7E9FD1C5A4BCD9CAC8B5AD31
:100E8000A89390888565406A6C664F43614D5F709A
:100E9000566F737E6F6C938BA0AD9A9DA393959BB9
:100EA0008888777382665343535C4E515D745F53F9
:100EB0005F6C6A567886916C7A9EADAE98C9E5E112
:100EC000CEB0BCADAB9F8791697069526B515B57D7
:100ED000496261615B6982616F7E889A8AA6A39884
:100EE000AC8A939B8D907783784F5454585B565CB3
:100EF00061615C4C4E797A6056779D8B6486B6D181
:100F0000C5A8D9C9C9D3B1B19FA88F8890445275DB
:100F1000725D37595D45676A546B748062789B8552
:100F2000A4AB94A294A2988D8D837E6B78664D516C
:100F30005859445873604E52787557676B8F7E6C62
:100F4000949DCCA69ED4DDE0B5BFBBA0AB8D9477BD
:100F500058744F565F4D594552605662657D8261A7
:100F6000827E9AAB93B39AA7B18BA79490937C8817
:100F7000625759515B4A48525D594D4866816B56DC
:100F80005893A0807590C6D7B9B1DFCFCCC0AEADB5
:100F90009E998A80663C576C5C4F3C5756527260F3
:100FA00061747A87788F959AB9A49DA79D9F9D8C2F
:100FB0008C8274756B4F41514F454558624A40537E
:100FC0006C6C5664749380668FAEC1A6BEE9DBD9A3
:100FD000BABCB5A2B191957361784E6F5D4A614A12
:100FE0006262676E628172748383A09699A3989FF0
:100FF0008D8D9B82868073734F4E534D5F494F6535
:10100000646E606773615C5C8CA88C6A83C1C4B5D4
:1010100093C9F3C8B6A0BAB2887773986B3C696479
:10102000644C43625B6E6A4D6B838570729B9E9DC0
:10103000AB9FA8A48B8F959B936C7381734F405388
:10104000575F4F565D5B564961616F778079699351
:101050009DA898A6EAE9C5B3C0C8A9A396968A74C4
:1010600073666C6256565958525D65617570707042
:101070007C9B889DA799A99B939A9594827D826277
:1010800052565F5D4643546B624D48567A695451DF
:101090007C9E866F88C3C3B7B5D7E0BAC9C6B6A869
:1010A000958B8C8D4F4974705C394F5B52655D61D7
:1010B000697874678591989DA8ACABA3949FA3931E
:1010C000857983755C4D4E54494A496274544E5833
:1010D0006B69526C879175869AADB5A9D2E1E1D260
:1010E000AEBFA8A79E7C8C62705945704A51514989
:1010F0006A5B64656C8A6B7985889E9BACAE9AA0AE
:1011000096989E888D7D75774A484A495B484F601E
:10111000675C51517267597486A76C829FB0C5A8ED
:10112000D4E4D6BCB0C1B5A2868588795B526C5D2B
:10113000524353625467596A7A77836C8B9996A7A6
:10114000A0ADA094909F98877C6E7D6B4D464652D3
:10115000514E53676A4D496C816C656F8C887986F6
:10116000A2C5BEB9D3DDD8C5C6B398B09886785DA0
:101170006C496A6639624A5B57577252857A607D5C
:101180007D9991A0B38BA49E939D918C80777C5F79
:101190004E544A574549606E5F4C566A79546273A3
:1011A0009E8D6793A7CFB2ADE4E1D4B5BFCEA79E25
:1011B0007E8B906A574970654A46525D585D616CF6
:1011C0007579706F8B999E9EA4A99D8D8FA4958231
:1011D0007772815B4D4F45544E4F5F6B6945437C41
:1011E00075675D779E778387ABBEAECAD2EBC8BA10
:1011F000C6ACB0968D8D77774D577053534E515C7A
:1012000058705C69876A7A77959D8AC09A9DA88A8A
:10121000A088958F6C806A594D4A644E48526B6C19
:10122000544F527D695D5D8299748587B7B0B0D7A0
:10123000D8DFB1BECAB0A388839386564E676E5F6F
:1012400046515661675D696B7D707483909999A072
:101250009FB191859A9A90707A7D65594C4E5258FB
:1012600053526B6B5B3C6786695D5F948C727E9BAF
:10127000BFBBBBCCDDDCBFBEB0A7B08A8A7C6B61D4
:101280004A80564559515C4E6E5F5C8F6C70778A10
:10129000A386B5A993A8969D9191907D72755F5193
:1012A0004C595C414564735B4A4E756C616272993E
:1012B000748083A8C19ECAE0E5C6B2CAB5B09E8A52
:1012C0008777814F4F6C595748595B5169657279DF
:1012D0006E8073939E8FB296A8A3859B919A826924
:1012E000836C56544C534E4C5262615D44537D6E38
:1012F0006C548388788787B3B3C0D4DCD9BCC4BFAF
:10130000B0AD9990877C614673654D564C584C65DD
:1013100070597C6F787577A386A8AC96B28D9D9630
:101320008F957980796159545152494359695F5673
:101330003F6178665D5495947C7793C8B0B9C8EBEB
:10134000E0B5C6BCBBA3948B82834D5665675F3204
:10135000525359664E6B6C7578698D918CADA3A311
:10136000B1959D999D9872857A6764465252545101
:101370004E6962513E6A8370565B8D9577739FC844
:10138000CAB3C4E6D9C5B7B1B1AD937C856A4A5C2E
:101390006B6048455745546C4F6077796E66918F06
:1013A00091B39A9E9EA29F90968A8377706B574EB8
:1013B0005B5646516565594A587D73675B749A77E9
:1013C000778DB9D49DBEDDEACDABC5AEB99D7C8B22
:1013D000797253536464544C5653675961726B7AF3
:1013E000667C8C93A69A9BA4A38C90A48C82757C1B
:1013F0006C605C49574F54575B6E584C5C82745F0D
:10140000627E98728096BAC4A3C5D9E5BFAEBAAB66
:10141000B1868185756644646956515257576B5F32
:10142000607A73786E819891A9A696AB9E8F9B96F1
:10143000918075806A5F4F53594E4F566572534F76
:101440005B7769567088916C909FB5B1A2DDDCDF47
:10145000B7ABC4ADB1818887726F436E6051544998
:101460006056655B607E6B7A6F869F8CACA3A0AD87
:101470009B8F989E967D73866A4D544F584C545B53
:101480005D70544C547A62616E93876F8B9EBFA7D8
:10149000BEE2D4CFB6BBB5A3A28B878770575D6C75
:1014A00064484965495B605F73678D67699B8AA47F
:1014B0009DA3B08F8F959A94817E75776751535312
:1014C0005B4E51666E61485F8575644D819B8F7878
:1014D0007DC4C0B9ADCEE1B6C4ACAEA693946E8067
:1014E0005D546F615B405258576A5B5D73747470F2
:1014F000839396A4B093AC9D8F9E8D9A7D807A67DE
:101500006A485B5C445151726C4A574F7464527024
:10151000819B657A99B5B390D9E0E4BCA3C9A9C011
:101520008A8090738B3C656E4D60455F566066594E
:101530007C7072797D9A90A0A89AAB9E8A9A9993B2
:101540008F6E8066545743604F51596567534D58AD
:1015500072586F6B876E6EA78BB5A4B9F2CEDCB1F3
:10156000BBC6A8B17A9E7E79724C724E625D4C56B3
:101570004F6A5C77726578678C879AB09AA29E9959
:101580008D999A8B7D74825C535D4F56455B6A588A
:101590006648486E77794F5D9685777EABCDAEBC59
:1015A000CFDDCEC3C3A8B09E878A866B4C627466BB
:1015B0004C495D4E5C69597572786B6E938FA2AB26
:1015C00095A7A98F9B998C81747A6C6A5643535264
:1015D000444D5C6F5F4D567D7D5F566FA9807E8860
:1015E000B5D8A6BACCE7CDACC0A8B696868F727334
:1015F000465C745F5345585965695C78777C7378AD
:1016000098939AAD9B9FA98D98938F876C7D6C5D05
:101610005244584F4E51596A56435885785C5C8005
:101620009886788DB9C6B7BEE0D9C4BBB1ADA69ACD
:101630008282785456626A59485857566761626E7A
:1016400075806C83998CA9A698AD969B969493828D
:10165000836F675D4F56565249576B5B4D4D627EA7
:101660006659658894707C96BFBBA7D1E4D7B0B5A6
:10167000C0ADA88A8B877D65546C6A5F4557605FF3
:101680006E5B6F756F816B87968BA8999EA38C900C
:101690009598877C7C7865564F57574F4E566F6CA0
:1016A0004E466980615C6A9688788A90C4ACB2D1F3
:1016B000D9DCA9C3B7B2A38591798253546F605C1A
:1016C0004159565F6756746C79746B948D96A89BDC
:1016D0009FA495919595917A807D60594E58534A73
:1016E0005756726A4C545D7E57597596886791A417
:1016F000C098B6E6DCD7A0B9B7AEA4798B877D5485
:101700005B7561574C5D53656E56746F7D6A709E54
:10171000889A9D9EAB94918D958F817773795C4E5D
:1017200044575F4F59576F60415F78866957798D8D
:10173000827C81BCC9ACC5D8E0BFBCBAA6B6948DCA
:1017400083726A486C6C5C53495D54696261797359
:101750007D6B7E9090A9A094A79D8F9A958D7C79A2
:101760007A66645251584C4E54646C534C617E6599
:10177000565F8C91748593BCADB0CDE0E0BBBFBB30
:10178000B5A6888C8C835356726A584157545F6E45
:101790005266706F746A8F9186A89F9DAC909395E6
:1017A000918D7280756959495656574F5B6E6552D7
:1017B00045697E665462958B7D74A0C0B3C3C6EC48
:1017C000CABCC3A9B79D9986877C45696E67524597
:1017D000664F616A54666F79706E8C8C88AB9B9A89
:1017E0009F8D998B958A78836B67544D6259524CC3
:1017F0006277594C4F7D78625B759682777DB2C86F
:10180000AEB9D4E2C3BAC5ACADA291837C6F4F69C7
:101810006A5C4D4C62515C625D726E776E72958D42
:101820009DAD94A49A93969598817A7D6A5F58525B
:101830005B4D4D536673564F567D6E566682A2774A
:10184000728DBEC0A2C3DBE9C0B2BCB0B9948281C4
:10185000886B466F5F614D545F4C7256616F737E4B
:101860006186958BA4A0A49E9095938F8C827375AE
:101870006E60484D5C4F53566C6A4E4E5C796266A2
:101880006B868B758099C6B3ADCEE4D6B0BCBFABCA
:101890009E8F8C82795958666658465D595D645CA6
:1018A00072737D7E6A8C9498AC9EA2A08D99959659
:1018B00086757D7264534E5857484D5D7064454C33
:1018C0007D775D5D789E817583B2C9B5B5D2E5C679
:1018D000B7BBB0A99E8B8282675262696249515F31
:1018E0004E66615F7477816770938DA2AB9AA49501
:1018F00098938F967C7A77705C4F53584C46586714
:10190000675744617E6665609195737994CDBCA0FC
:10191000C5E0DCB6B6B9A4B08C85867A6A4E676736
:101920005C4E545B586B5B6E79777867879496B0A2
:101930009B9DA8958F949E887A797A625C524C56CA
:101940004A57596569514A70806E5B72998A7380F3
:10195000B1C0B3ADCFDDCABCB3B1A6A4837E8A69E2
:101960004A566C62494C5B516065566E787A706B72
:101970009D9099B39AA89A999A9999858079756159
:10198000544E5756484A6270614A57737A545D7E86
:101990009B816E8BACC99EB6E0E7CEA7C1BAB59667
:1019A000858C7D774A5F65624F406054675C5679ED
:1019B0006A7E6C789E8AA3A29EA49D938898998142
:1019C0006C7D72594E5157515758586B6549537A2F
:1019D0007965598B9979778CBEB9B9C6D8DBBEC306
:1019E000B3ABAB998D80885B4C6B6A5C3B59594EAD
:1019F000655D606C7A8264809990A6A79BA28F999E
:101A00009D8D917E7E756E624D576056495B6C650B
:101A1000564570816A65568F8F7A7E88D3B5AEC47D
:101A2000D6E2AEC5B3ADAC8B967A7C644E675F5C94
:101A300045485856675662706C6F6F829196A29DAA
:101A400094AB938D9F93907C7E7E65694E575C4AE4
:101A50005B5D6B604D4F75806E5B649B8677829F8C
:101A6000CEACB5C9DDD8B5BCA6ADA4818D7C754E14
:101A700054745C5B4A5352606F546B737A6F70900E
:101A80008D99A998A0A4939696918C7978746A5FA1
:101A90004A5C574C565F6959525175775D606B9E31
:101AA0007D7588A7D2A0B1D2E0D7ADC1ABB3A48277
:101AB000957577525C7054564854585D66577474E7
:101AC000757474958FA2AC98A4A695969D948D7C00
:101AD0007E75655C4C58564F585F6B584D4C77720D
:101AE0005964749D74728DB0C9A3C5D9D9CDB3C0E2
:101AF000A8ADA08290806652646A564658534C6ADC
:101B0000595C6F757E5C7E938CACA39B9A9995947F
:101B10009993887774755C524D59564A5F64615445
:101B20004672796F5D52908C867791D7B1BBC6E4CF
:101B3000D7B3CDACB29F9091747D4F546F5F583E38
:101B40005257566A5B6170747477869999B1AC96F6
:101B5000B39B9D9E94997A82756760495C4E464E10
:101B6000596F534E486977585C67A0876B79A3CE4D
:101B7000ABB7D7E5D9B7C0ACABAB8A8680754E584A
:101B80006A594C4C574E61645869727C6B6B9490E7
:101B900099B19BA9A2949B93968B78777461514AD3
:101BA00059534654655F574561806C674F859583EF
:101BB0008682CEC1B3C6D7E7B5C5BAAEB08D96782A
:101BC0007D65456B5D5C3F455D4D675C5B6B6C7532
:101BD000707C9998A7B399AE9E96A7959A828283B6
:101BE00066664A5B5C434C4E6F623F4D5273604D7C
:101BF0006E869F6B7799BCBA9AD3E0DDBFB1BCA863
:101C0000AD908B9480605C786A59495D5C5B7553DC
:101C1000707A6B7557909186B0909D958D938B9649
:101C200085776F7D6C4C4F535748516262725D549B
:101C30006C6764527EAC856C6EB7CCA2A7C8EBD63D
:101C4000C1B9AEBCA78A8282885D616A5457485D7B
:101C5000605C664D67777A72608D949BAE9BACA397
:101C60009093959F8F7E7C737056455654535C5865
:101C7000514E454C6673614E6E9A816A74A2CAC316
:101C8000C0D1E4D1C6BAABB3AC968A856F60746F2D
:101C90005D4C4D574F6B6B5C656A8373749495A66E
:101CA000A7989F919495888F7E736A64614A4D537B
:101CB000514D5C6A7259536B5B6457759A8A7D7893
:101CC000A4B9AEB1CFFADCB6B3BEBF98808D908117
:101CD0005249655F5F444A5F616F5160806F74670E
:101CE0008A9F8CABA0A4AD8F93949E997C817A72CD
:101CF000523B5458574F525F66514C6679784D6B42
:101D00008C9D806EA0B9C4BACDDCCACCB6ABA29F04
:101D1000968275645466695449495F52596C546E91
:101D20006E78836F918C9FBB96ABA39FA08D988C90
:101D3000857D69664E535B4D4A4D594C404D6986D1
:101D400072464D6FAE8B5D81B3E0A8A6CCDCDFB6EA
:101D5000B7ABB9A9808270795C676F5654455B59FF
:101D60006C74546F73857A709D93A8A49BACA89BE8
:101D70008B909694776B66625C484843485D5453F9
:101D800056595966625C6B82967A8694B7BBABD61D
:101D9000E5DCBBC0CEB6A88F8D93865B4A676C60CE
:101DA0003F4E5D586459666C708367808B8CA99B2D
:101DB0009E9F949193998D7A787562545152544CA8
:101DC0004D53666C53466287725B5F95967A7E933D
:101DD000CABFBBCFDCE2B5C0BEB5AD868D8182582F
:101DE00044705D544C54564F6B575D757A7C6687D2
:101DF0009B91A9A295A996959991957A787E615B18
:101E00004C575C464E4E6B6C46545C796452788FEE
:101E1000907483A8BFA9B0D7E6DCA9ADBBB39F7D02
:101E20008388825457665F644959566273516F774D
:101E30007C756E9D9494AD9BA7A093938D988A6EAC
:101E40007777624D434F515354516166524C6A80CB
:101E50006E59709695837EACBABCC5D9E6BEC3BC3C
:101E6000B2AC94908082644566696244415B536180
:101E700064576B7479797295919DB696AEA3919FD4
:101E8000919E817C8669674C4A57544C435D6F5DD7
:101E9000464D7A77575B749E857983B0C4B3C9CFBA
:101EA000EBCABEBFACBA998D807C6F486C5F5B4E4D
:101EB000435C486A644F736E796E75988C9BAD9ED7
:101EC000ABA6909A8F9986737C66644E46584F4EA7
:101ED00052626B54445880725D5B819982788DBEEA
:101EE000CCB5C1E4E0C6BCBAABAC9F8680755F538D
:101EF00062625148535349625F5D6C6F7E6785959E
:101F000087B0ABA2A89BA4949D948283786B5B510D
:101F10005256484454666C464D5D6C604E748F95C5
:101F20007073A8C8BBA6CDF3DFBCB3C1B7A88D83BF
:101F30008780604F6764573F585D56654A677E7279
:101F4000816688A08DB19EA8A98D99989B8D7A7D78
:101F500070665143485152434660644A3F627D5C1B
:101F6000606C988A7E889BCDC3C5D9EFDCBCC5BEAA
:101F7000B59D948D807351605B5F51405851665C94
:101F8000516C677E6F6C95859DAE9BA69F999A91CB
:101F90009F8D737E74624C4E544C4A5359615D441C
:101FA0004C787965537CA2887082C5CDBABBD7EBDB
:101FB000C9C3BAACA8988A77815D436666593F4C1D
:101FC0005F4965605670727E617C9A8CA3A99BA361
:101FD00099969B9A958080746B64534C584F4651E8
:101FE000677251485C7D6C5D628D947C8091C4BE4B
:101FF000B9CAEAE5BCC1BBB9A8948688835F5B58BF
:10200000645F46524D5B6153676477756F858D954C
:102010009E9F9BAB9591959895788074625D4E528A
:102020004F52534D6661513C61816A585D88907989
:1020300077A3C0C6BECEEAE0C6BEB5ABA48C7A79A3
:102040006E484564604D4A5D5859776C6E88858549
:102050007D93A78FB0A699A4909888807E69615DD2
:102060005146314144353344525154658080879400
:10207000A6ACBBC3C1D3D9D1C3C1C1BEAEA79D8FCE
:102080008F816F6566695449534F4A4F515D5C5863
:102090005C666F6B7081817D8281827D7D74797ECB
:1020A0007D808183889390909BA6A7A69FA6A2A2DD
:1020B0009E9495908C858686837C7979736C655C1B
:1020C000544F4F56595D5D5C64696C70757A7E86BD
:1020D0008F908D939A9A9FA4A4A39EA09E99948C6E
:1020E0008C8785857C7770696664625F5F626465F2
:1020F000656A6E7580838588878888888C8B8D90CB
:102100008F8C8B8C8B87878787858280808181836A
:10211000807E8181807E7D7A797874706F706E6B3D
:102120006A6A6A696A6C7277787A7C8085888C8F33
:10213000919498999B9999999995918F8C8A858179
:102140007E7C787472706F6C6A67666767696A6EA6
:10215000727475787C7E8283858787888887878775
:10216000888A8A8A8B8B8A878585868686858583F9
:102170008585828281807E7D7A787372726F6F6EC0
:102180006F6F6F7073747577797C7E818285878AB3
:102190008B8C8D8D8D8F8F8D8C8A8A888786858399
:1021A00082817E7C7A7978757475747373737575B2
:1021B000757778797A7C7D7D7E8080828385858540
:1021C00086858585858585858686868585858585BB
:1021D000858583838281807E7D7C7A797977757429
:1021E000737473737475757778797C7C7E8182855E
:1021F0008586878788888888888887878786858571
:10220000838281817E7D7C7A797978787979797811
:1022100078797978797A7A7C7C7D7E7E80808181FC
:10222000828383838383838585858585858585836F
:1022300082828181807E7E7E7D7C7C7A7A797979CA
:10224000797979797A7A7A7C7D7D7E8081818182C3
:102250008282828282828282818181818181818067
:1022600080807E7E7E7E7E7D7D7D7C7C7C7A7A7A9F
:102270007A7A7A7C7C7D7D7E7E8081818283838375
:1022800083838585858583838282818180807E7E2C
:102290007D7C7A7A7A7979797A797A7A7A7C7C7C97
:1022A0007C7D7E7E8080808282828383858383831F
:1022B0008383828282828281818180808080807E0D
:1022C0007E7E7D7D7D7D7C7C7C7A7A7A7A79797957
:1022D000797979797A7A7C7C7D7D7E808081818232
:1022E00083838385858686868686858585838382A6
:1022F0008181807E7E7D7D7C7A7A7A7A7A7979791D
:10230000797A7A7A7C7C7D7D7E7E7E8080808181F8
:1023100081818182828282828181818181828282A5
:102320008282828282818181808080807E7D7D7CAC
:102330007C7A7A7A7A79797979797A7A7A7A7C7CFC
:102340007D7D7E7E80818181828282828383838380
:10235000838382828282818181808180807E7E7E71
:102360007E7D7D7D7D7D7D7D7D7D7D7D7D7D7D7E9B
:102370007E7E7E7E7E7E7E7E7E7E7E7E7E80808077
:102380008080808081818181818181818181818141
:102390008181818080807E7E7E7E7D7D7D7D7D7D54
:1023A0007D7C7D7D7D7D7D7D7E7E7E7E808080804E
:1023B0008081818181818180808080807E7E7E7E1F
:1023C0007E7E7E7E7E7E7E7E7E7E8080808081811F
:1023D000818181818181818181808080807E7E7EFA
:1023E0007E7E7E7E7E7D7D7D7D7E7E7E7E7E7E7E11
:1023F0007E7E808080808080808080807E7E7E7EE9
:102400007E7E7E7E7E7E80808080808080818181D5
:1024100081818181818181818080807E7E7E7D7DC0
:102420007D7C7C7C7C7C7C7C7C7C7C7D7D7D7E7EE4
:102430007E8080808181818182828282828282828A
:10244000818181818180808080807E7E7E7E7E7E93
:102450007E7E7E7E7E7E7D7D7E7D7D7D7D7D7D7DA5
:102460007D7D7D7D7E7E7E7E7E7E80808080818182
:10247000818181828181818181808181818080804F
:102480007E7E7E7D7D7D7C7C7C7C7C7C7C7C7C7D82
:102490007D7D7D7E7E7E8080808081818181818145
:1024A0008181818181818181818080808080808023
:1024B00080807E7E7E7E7E7E7E7E7E7E7E7E7E7E38
:1024C0007E7E7E7E7E7E7E7E7E7E7E7E7E80808026
:1024D00080808080808080818181818181818080F5
:1024E00080808080807E7E7E7E7E7E7E7D7D7D7D06
:1024F0007D7D7E7E7E7E7E7E7E7E7E8080808080F4
:1025000080808080808080808080808080807E7ECF
:102510007E7E7E7E7E7E7E7E7E80808080808080CD
:1025200080808080808080808080808080808080AB
:1025300080807E7E7E7E7E7E7E7E7E7E7E7E7E7EB7
:102540007E7E7E7E7E7E7E7E7E7E7E7E7E7E7E7EAB
:102550007E7E7E8080808080808080808080808081
:1025600080808080808080808080807E7E7E7E7E75
:102570007E7E7E7E7E7E7E7E7E7E7E7E7E7E7E7E7B
:102580007E8080808080808080808080808080804D
:1025900080808080808080808080807E7E7E7E7E45
:1025A0007E7E7E7E7E7E7E7E7E7E7E7E7E7E7E7E4B
:1025B0007E7E7E7E7E7E8080808080808080808027
:1025C000808080808080808080808080808080800B
:1025D00080807E7E7E7E7E7E7E7E7E7E7E7E7E7E17
:1025E0007E7E7E7E7E7E7E7E7E7E808080808080FF
:1025F00080808080808080808080808080808080DB
:102600008080808080807E7E7E7E7E7E7E7E7E7EDE
:102610007E7E7E7E7E7E7E7E7E7E7E7E7E7E7E7EDA
:102620007E808080808080808080808080808080AC
:102630008080808080808080808080807E7E7E7EA2
:102640007E7E7E7E7E7E7E7E7E7E7E7E7E7E7E7EAA
:102650007E7E808080808080808080807E7E7E7E86
:102660007E7E7E7E7E7E7E7E7E7E7E7E8080808082
:10267000808080808080808080808080808080805A
:1026800080808080807E7E7E7E7E7E7E7E7E7E7E60
:102690007E7E7E7E7E7E8080808080808080808046
:1026A000808080808080808080808080808080802A
:1026B00080808080808080808080808080807E7E1E
:1026C0007E7E7E7E80808080808080808080808012
:1026D00080808080808080808080808080808080FA
:1026E00080808080808080808080808080808080EA
:1026F00080808080808080808080808080808080DA
:1027000080808080808080808080808080808080C9
:1027100080808080808080808080808080808080B9
:1027200080808080808080808080808080808080A9
:102730008080808080808080808080808080808099
:102740008080808080808080808080808080808089
:102750008080808080808080808080808080808079
:102760008080808080808080808080808080808069
:102770008080808080808080808080808080808059
:102780008080808080808080808080808080808049
:102790008080808080808080808080808080808039
:1027A0008080808080808080808080808080808029
:1027B0008080808080808080808080808080808019
:1027C0008080808080808080808080808080808009
:1027D00080808080808080808080808080808080F9
:1027E00080808080808080808080808080808080E9
:1027F00080808080808080808080808080808080D9
:1028000080808080808080808080808080808080C8
:1028100080808080808080808080808080808080B8
:1028200080808080808080808080808080808080A8
:102830008080808080808080808080808080808098
:102840008080808080808080808080808080808088
:102850008080808080808080808080808080808078
:102860008080808080808080808080808080808068
:102870008080808080808080808080808080808058
:1028800080808080808080808080808080807E7E4C
:102890007E7E8080807E7E80808080808080807E42
:1028A0008080807E80807E7E807E7E7E807E7E7E3A
:1028B0007E7E7E7E7E7E7E7E7E807E807E7E7E7E34
:1028C000807E7E80807E7E7E7E7E807E7E7E807E1E
:1028D0007E807E7E7E7E7E7E7E7E7E7E7E7E7E7E16
:1028E0007E7E7E7E7E7E7E7E7E7E7E7E7E7E7E7E08
:1028F0007E7E7E7E7E7E7E7E7E7E7E7E7E7E7E7EF8
:102900007E7E7E7E7E7E807E7E7E7E7E7E7E7E7EE5
:102910007E7E7E7E7E7E7E7E7E7E7E7E7E7E7E7ED7
:102920007E7E7E7E7E7E7E7E7E7E7E7E7E7E7E7EC7
:102930007E7E7E7E7E7E7E7E7E7E7E7E7E7E7E7EB7
:102940007E7E7E7E7E7E7E7E7E7E7E7E7E7E7E7EA7
:103020007E7E7E7E7E7E7E807E7E7E7E7E7E7E7EBE
:103030007E7E7E7E7E7E7E7E7E807E7E7E808080A8
:103040007E7E7E7E807E7E7E7E80807E7E7E7E7E9A
:10305000807E7E7E7E80807E7E807E7E7E807E7E86
:10306000807E7E80807E7E807E7E807E7E80807E72
:103070007E807E7E80807E80807E80807E7E80805E
:103080007E7E807E7E807E7E80807E7E807E7E8054
:103090007E7E807E7E7E807E7E7E7E7E7E7E7E7E4C
:1030A0007E7E7E7E7E7E7E807E7E7E7E7E7E7E7E3E
:1030B0007E7E7E7E7E7E7E7E80807E7E7E7E7E7E2C
:1030C0007E7E7E7E7E7E7E7E7E7E7E7E7E7E7E7E20
:1030D000807E7E7E7E7E7E7E807E7E80807E7E7E08
:1030E0008080807E7E7E80807E807E80807E7E7EF0
:1030F0007E7E7E7E7E7E807E7E7E7E7E7E7E7E7EEE
:10310000807E7E7E7E7E7E7E807E7E807E7E7E7ED9
:103110007E7E7E7E7E7E808080807E807E7E7E80C3
:10312000807E807E7E808080807E80807E7E7E7EAF
:10313000808080807E7E7E7E7E7E7E807E7E7E7EA5
:10314000808080808080807E7E807E7E7E80808089
:103150007E807E7E7E7E7E7E80807E807E80807E83
:103160007E7E7E7E7E7E807E7E807E7E807E7E7E79
:103170007E7E7E7E7E7E7E7E7E7E7E7E7E7E7E7E6F
:103180007E7E7E7E7E7E7E7E7E7E7E7E7E7E7E7E5F
:103190007E7E7E7E7E7E7E7E7E7E7E7E7E7E7E7E4F
:1031A0007E7E7E7E7E7E7E7E7E7E7E7E7E7E7E7E3F
:1031B0007E7E7E7E7E7E7E7E7E7E7E7E7E7E7E7E2F
:1031C0007E7E7E7E7E7E7E7E7E7E7E7E7E7E7E7E1F
:1031D0007E7E7E7E7E7E7E7E7E7E7E7E7E7E7E7E0F
:1031E0007E7E7E7E7E7E7E7E7E7E7E7E7E7E7E7EFF
:1031F00080807E7E7E7E7E7E7E7E7E7E7E7E7E7EEB
:103200007E7E7E7E7E7E7E7E7E7E7E7E7E7E7E7EDE
:103210007E7E7E7E7E7E7E7E7E7E7E7E7E7E7E7ECE
:103220007E7E7E7E7E7E7E7E7E7E7E7E7E7E7E7EBE
:103230007E7E7E7E7E7E7E7E7E7E7E7E7E7E7E7EAE
:103240007E7E7E7E7E7E7E7E7E7E7E7E7E7E7E7E9E
:103250007E7E7E7E7E7E7E7E7E7E7E7E7E7E7E7E8E
:103260007E7E7E7E7E7E7E7E7E7E7E7E7E807E7E7C
:103270007E807E807E7E807E7E807E7E7E807E7E64
:103280007E7E7E7E7E7E7E7E7E7E7E7E7E7E7E7E5E
:103290007E7E7E7E7E7E7E7E7E7E7E7E7E7E7E7E4E
:1032A0007E7E7E7E7E7E7E7E7E7E7E7E7E7E7E7E3E
:1032B0007E7E7E7E7E7E7E7E7E7E7E7E7E7E7E802C
:1032C0007E7E7E7E7E7E7E7E7E807E807E80808014
:1032D000807E8080807E7E807E7E807E80807E7EFE
:1032E00080807E7E7E7E7E7E7E807E80807E7E80F2
:1032F00080807E7E7E7E807E80808080807E8080DA
:1033000080808080808080808080807E807E7E7EC5
:10331000807E7E8080808080807E807E7E7E7E7EBD
:103320008080808080807E7E8080808080808080A1
:10333000808080808080808080808080808080808D
:103340008080808080807E7E807E7E808080807E87
:103350007E7E7E7E7E807E7E7E7E7E807E7E7E7E89
:103360007E7E7E7E7E7E7E807E807E80807E7E8073
:10337000807E807E7E807E7E7E7E7E7E7E7E7E7E67
:10338000808080808080807E7E7E7E7E7E7E7E7E4F
:103390007E7E7E7E7E7E7E7E7E7E7E7E7E7E7E7E4D
:1033A0007E7E7E7E7E7E7E7E7E7E7E7E7E7E7E803B
:1033B0007E7E7E7E7E7E7E7E7E7E7E7E7E7E7E7E2D
:1033C0007E7E7E7E7E7E7E7E8080807E7E7E7E7E17
:1033D0007E7E7E7E7E7E7E7E7E7E7E7E7E7E7E7E0D
:1033E0007E7E7E7E7E7E7E7E7E7E7E7E7E7E7E7EFD
:1033F0007E7E80807E7E7E7E7E7E7E7E7E7E7E7EE9
:103400007E7E7E7E7E7E7E807E7E808080808080CE
:10341000807E808080807E7E7E7E7E7E7E7E807EC0
:103420007E807E7E7E7E7E807E7E7E807E7E7E7EB6
:103430007E7E7E7E7E7E7E7E7E7E7E7E7E7E7E7EAC
:103440007E7E7E80807E7E80808080808080808086
:1034500080807E80807E7E7E7E7E7E7E7E7E7E8082
:103460008080808080808080807E7E7E7E7E7E7E6A
:103470007E7E7E7E7E7E7E7E7E7E7E7E80807E8066
:103480007E7E7E7E7E7E7E7E7E7E7E7E7E807E8058
:103490008080807E7E80807E7E80808080807E8036
:1034A0008080807E807E7E807E7E807E7E807E7E2E
:1034B0007E7E7E807E7E807E7E7E807E7E807E8022
:1034C00080808080807E7E7E7E7E80807E80808008
:1034D00080808080808080807E80807E80808080F0
:1034E00080808080808080808080808080808080DC
:1034F00080808080808080808080808080808080CC
:1035000080808080808080807E80808080808080BD
:103510007E808080808080808080808080808080AD
:10352000808080808080807E7E807E80807E8080A3
:10353000808080807E7E7E7E7E7E7E7E7E807E809F
:10354000808080807E7E7E7E7E7E80808080807E89
:103550007E7E7E7E7E7E7E7E808080808080807E7D
:103560007E7E7E7E7E7E7E807E7E8080808080806D
:10357000808080808080808080808080808080804B
:1035800080808080808080808080808080807E803D
:10359000808080808080808080808080808080802B
:1035A00080808080808080808080807E7E8080801F
:1035B000808080808080808080808080808080800B
:1035C00080807E807E7E807E808080808080808003
:1035D000808080807E80807E8080808080808080EF
:1035E000808080807E8080807E80807E80808080E1
:1035F0008080808080808080808080808080807ECD
:103600007E807E7E7E7E807E7E807E7E80808080CC
:10361000808080807E80807E7E7E7E807E808080B6
:1036200080807E808080808080808080808080809C
:1036300080807E7E8080808080808080808080808E
:10364000808080808080808080808080808080807A
:10365000808080808080808080808080808080806A
:10366000808080808080808080808080808080805A
:103670008080808080807E7E7E7E807E807E808056
:10368000807E80808080807E7E8080808080808040
:1036900080807E8080807E807E7E7E7E7E7E7E7E3E
:1036A0007E7E7E7E7E7E7E80808080808080807E2A
:1036B0007E807E7E7E80807E7E7E7E807E807E7E20
:1036C000808080808080807E80807E8080808080FE
:1036D00080808080808080807E7E808080807E7EF2
:1036E000807E7E807E7E7E7E807E7E8080808080EA
:1036F00080807E8080807E7E8080808080808080D0
:10370000808080808080808080808080807E8080BB
:103710007E807E7E8080808080807E7E7E80807EB7
:103720008080807E8080807E7E7E7E7E7E808080A7
:103730008080808080808080807E8080808080808B
:1037400080808080808080808080807E7E7E80807F
:1037500080808080807E8080807E8080808080806D
:103760008080807E7E7E7E7E7E7E7E807E7E7E806F
:103770007E7E80807E7E8080807E7E7E7E7E7E7E5F
:10378000807E7E807E7E7E7E7E807E80807E80804B
:1037900080807E80807E808080808080808080802D
:1037A000808080808080807E80808080808080801B
:1037B0008080808080808080808080808080807E0B
:1037C00080808080808080808080808080808080F9
:1037D0008080808080808080808080808080807EEB
:1037E0007E807E7E808080808080808080808080DF
:1037F0007E807E7E808080808080808080808080CF
:10380000808080808080807E8080808080808080BA
:1038100080808080808080808080808080808080A8
:103820008080807E80807E8080808080808080809C
:103830008080808080807E807E808080808080808C
:103840008080808080808080808080807E7E80807C
:103850007E80807E8080808080808080807E80806E
:103860007E7E80808080808080808080808080805C
:10387000808080808080808080807E7E808080804C
:103880008080808080808080808080807E8080803A
:103890008080807E7E7E7E80807E80808080808032
:1038A00080807E7E807E80807E8080808080808020
:1038B00080808080808080807E808080807E80800C
:1038C00080808080808080808080808080808080F8
:1038D00080808080808080808080808080808080E8
:1038E00080807E8080807E808080808080808080DC
:1038F000808080808080807E80807E8080807E80CE
:103900008080808080808080808080807E807E7EBD
:1039100080807E7E7E7E7E7E80807E8080808080B5
:10392000808080807E80807E7E807E7E7E7E7E7EA9
:103930007E7E7E7E807E80807E7E7E7E7E7E80809D
:103940007E80807E7E8080807E7E7E7E7E80808087
:10395000808080807E7E7E807E80807E8080807E73
:1039600080808080808080807E7E7E7E7E7E807E65
:103970007E807E7E7E807E80808080808080807E53
:103980008080807E8080808080807E7E7E7E808041
:1039900080808080808080807E7E807E7E7E7E7E35
:1039A0007E807E807E808080807E807E7E807E7E27
:1039B0007E807E7E7E7E7E7E7E7E80807E8080801B
:1039C000807E7E7E7E7E7E807E7E7E7E7E7E7E7E13
:1039D0007E7E7E7E807E7E7E7E7E808080808080F9
:1039E000807E7E7E7E7E807E7E7E80807E7E7E7EEF
:1039F0007E7E7E7E7E7E7E7E7E7E7E7E807E8080E1
:103A00008080808080808080808080807E807E80BA
:103A1000807E7E7E808080807E8080807E807E80B2
:103A2000807E7E7E7E7E807E807E808080808080A4
:103A3000807E7E7E80807E7E7E807E8080807E7E98
:103A4000807E80807E80807E80807E7E7E807E8084
:103A50007E7E7E807E7E7E7E8080808080807E7E78
:103A600080807E7E8080808080808080808080805A
:103A70008080808080808080808080808080808046
:103A80008080808080808080808080808080808036
:103A90008080808080808080808080808080808026
:103AA000808080807E7E7E7E7E80807E7E80807E26
:103AB000808080807E7E7E7E80808080807E7E7E14
:103AC0007E7E7E7E807E7E7E7E8080808080808006
:103AD0008080807E8080807E807E7E7E7E7E8080F4
:103AE000807E8080808080807E8080808080807EDC
:103AF000807E8080807E80807E7E807E7E7E7E7ED8
:103B00007E807E7E7E7E7E7E7E7E7E8080807E7ECD
:103B10007E7E7E7E807E7E7E7E7E7E7E80807E7EBF
:103B2000807E7E7E7E8080808080808080807E809F
:103B300080808080807E8080808080808080808087
:103B40008080807E8080808080807E7E7E80807E7F
:103B50007E80807E807E807E7E807E7E7E80808075
:103B6000807E807E7E80808080808080808080805B
:103B700080807E7E7E7E7E7E7E7E7E807E80807E5B
:103B800080807E80807E80807E808080807E7E7E41
:103B90007E807E808080808080807E7E7E7E7E7E35
:103BA0007E7E80807E80808080808080808080801B
:103BB0008080808080807E7E7E7E807E7E80808011
:103BC00080808080808080808080807E80808080F7
:103BD0008080807E7E7E7E7E7E80808080808080F1
:103BE00080808080808080808080808080808080D5
:103BF0008080808080808080807E7E807E7E7E7ED1
:103C00007E80808080808080807E807E7E7E7E80C0
:103C1000807E80807E7E80807E80808080808080AC
:103C200080808080807E807E7E807E80807E80809E
:103C30008080808080808080807E80807E80808088
:103C4000808080807E7E8080808080807E807E807C
:103C50007E807E7E8080808080808080808080806A
:103C60008080808080808080808080808080808054
:103C70008080808080808080808080808080808044
:103C8000807E808080808080808080808080808036
:103C9000808080808080807E808080808080808026
:103CA000808080808080808080807E808080808016
:103CB0008080808080808080808080808080808004
:103CC00080808080808080808080808080808080F4
:103CD00080808080808080808080808080808080E4
:103CE0008080808080808080807E7E7E7E7E7E7EE2
:103CF000807E807E80807E808080807E80807E7ED0
:103D00007E80807E7E7E7E7E7E7E807E8080807EC7
:103D10007E7E8080808080808080808080808080A7
:103D20007E807E7E7E808080808080808080807E9D
:103D30007E807E7E807E7E7E7E7E7E807E7E807E9B
:103D40007E7E80807E7E7E7E807E7E7E7E7E7E7E8D
:103D50007E7E7E80807E807E7E7E7E7E7E807E7E7B
:103D60007E808080807E807E7E7E7E8080807E8061
:103D70008080807E7E7E7E7E7E7E7E7E807E7E7E5B
:103D80008080807E7E7E7E7E7E7E7E807E7E7E7E4B
:103D90007E7E7E7E7E80808080807E7E7E807E8035
:103DA0007E7E7E7E80807E80807E7E7E7E7E7E7E2B
:103DB0007E7E807E7E7E7E7E7E7E7E7E7E7E7E7E21
:103DC0007E807E7E7E7E7E7E7E7E7E7E7E7E7E7E11
:103DD0007E7E7E7E7E7E7E7E7E7E7E8080808080F9
:103DE0007E7E7E7E7E7E8080807E807E7E807E7EE9
:103DF0007E7E7E7E7E7E807E7E7E7E7E7E807E7EDF
:103E00007E7E7E7E807E7E7E7E80808080808080C2
:103E10008080808080808080808080808080807EA4
:103E20008080807E80807E7E7E7E7E80808080809E
:103E30008080808080808080808080808080808082
:103E40008080808080808080808080808080808072
:103E50008080808080808080808080808080808062
:103E6000807E80807E808080808080807E80807E5A
:103E70007E807E7E80808080808080808080808048
:103E80008080808080808080808080808080808032
:103E9000808080808080808080807E80807E808026
:103EA0008080808080808080808080808080808012
:103EB0008080808080808080808080808080808002
:103EC00080808080808080808080808080808080F2
:103ED00080808080808080808080808080808080E2
:103EE00080808080808080808080808080808080D2
:103EF000808080808080807E7E7E808080808080C8
:103F000080808080807E808080807E807E808080B7
:103F100080807E7E808080807E80808080808080A7
:103F20007E7E7E7E7E7E7E7E7E7E7E7E80807E7EAD
:103F30007E7E7E7E7E7E807E7E807E7E7E7E7E809B
:103F40007E808080808080808080808080807E8075
:103F5000807E8080808080808080807E7E80808067
:103F6000807E7E8080807E7E807E80807E7E807E61
:103F700080808080807E8080807E7E7E7E7E807E4F
:103F800080807E8080808080807E80808080808035
:103F90007E7E7E7E7E7E808080808080808080802D
:103FA00080807E8080807E807E7E7E7E7E7E7E7E25
:103FB0007E7E808080807E7E7E7E7E7E7E7E7E7E19
:103FC0007E7E7E7E807E80807E80808080808080FD
:103FD000808080808080807E807E7E7E7E7E7E80EF
:103FE000807E7E7E7E7E7E7E7E7E7E807E807E7EEB
:103FF0007E7E7E7E7E7E7E7E80807E8080807E7ED7
:104000007E7E7E7E807E807E8080808080808080BC
:1040100080807E808080807E80807E807E7E8080AA
:104020007E80807E7E80808080807E7E7E7E7E80A0
:104030007E808080808080807E807E7E7E80807E8C
:104040007E808080807E807E7E8080808080808078
:104050008080807E80807E7E8080808080807E7E6A
:104060008080808080808080808080808080807E52
:104070008080807E7E807E7E807E7E7E7E7E7E7E56
:104080007E7E7E7E807E807E7E7E7E7E7E7E7E7E4C
:10409000807E7E807E8080808080807E7E7E80802C
:1040A00080808080807E80807E7E7E807E8080801A
:1040B000808080807E7E7E7E7E7E7E80808080800E
:1040C000808080807E7E7E7E7E7E7E7E7E7E7E7E08
:1040D0007E7E7E7E7E7E7E7E7E7E807E7E7E7E7EFE
:1040E000807E7E807E7E7E7E7E807E7E7E7E7E80E8
:1040F00080808080808080807E7E7E7E7E7E8080CC
:10410000807E807E80808080807E7E8080808080B7
:104110007E7E7E7E7E7E7E7E7E80808080808080B1
:1041200080808080807E7E7E7E8080808080807E99
:10413000807E808080808080808080808080808081
:104140007E807E7E80808080808080808080808075
:1041500080807E7E808080807E7E7E7E7E8080806D
:104160008080807E80807E7E7E7E7E7E7E7E7E8063
:10417000807E807E7E7E7E7E7E7E7E7E8080808053
:104180008080808080807E80808080808080808031
:104190008080808080808080807E80808080807E23
:1041A00080807E8080808080808080808080808011
:1041B00080808080808080808080808080808080FF
:1041C00080808080808080808080808080808080EF
:1041D00080808080808080808080808080808080DF
:1041E00080808080808080808080808080808080CF
:1041F00080807E807E7E80808080808080808080C5
:10420000807E7E7E7E80808080807E8080808080B8
:1042100080808080808080808080807E7E7E7E80A6
:10422000807E7E80808080808080808080807E8094
:10423000808080808080808080808080808080807E
:10424000807E807E7E7E7E7E7E7E7E7E7E7E7E7E8A
:104250007E7E808080808080808080808080807E64
:104260007E7E7E7E80807E807E808080808080805A
:1042700080807E7E807E80807E8080807E80808048
:10428000808080808080808080808080807E808030
:104290008080808080808080808080807E80808020
:1042A000808080808080807E808080808080808010
:1042B0008080808080808080808080807E80808000
:1042C00080808080807E80808080808080808080F0
:1042D000807E7E7E7E7E7E808080808080808080EA
:1042E0008080807E7E8080808080808080808080D2
:1042F00080808080808080808080807E80808080C0
:1043000080808080808080808080808080808080AD
:10431000808080808080808080808080808080809D
:10432000808080808080808080808080808080808D
:10433000808080808080808080808080808080807D
:10434000807E807E7E808080808080808080808073
:10435000807E8080807E8080808080808080808061
:104360008080808080808080807E7E80807E808053
:10437000808080808080808080808080808080803D
:10438000808080808080808080808080808080802D
:10439000808080808080808080808080808080801D
:1043A000808080808080808080808080808080800D
:1043B00080808080808080808080808080808080FD
:1043C00080808080808080808080808080808080ED
:1043D00080808080808080808080808080808080DD
:1043E0008080808080808080807E808080808080CF
:1043F00080808080808080808080808080808080BD
:1044000080808080808080808080808080808080AC
:10441000808080808080808080808080808080809C
:10442000808080808080808080808080808080808C
:104DB000808080808000DF2B11241FBECFEFD8E0E1
:104DC000DEBFCDBF14E0A0E0B1E0E8ECF3E602C046
:104DD00005900D92AA32B107D9F725E0AAE2B4E016
:104DE00001C01D92AC37B207E1F716E2CCEDD6E276
:104DF00004C02197FE010E94C131CB3DD107C9F704
:104E00000E94652C0C94E2310C940000E09177052F
:104E1000E33179F091E09E0F90937705F0E0EF5940
:104E2000FA4F8283E92FF0E0EF59FA4F128281E0C6
:104E3000089580E00895CF92DF92EF92FF920F9352
:104E40001F93CF93DF936C017A018B01C0E0D0E018
:104E5000CE15DF0589F0D8016D918D01D601ED9158
:104E6000FC910190F081E02DC6010995892B11F488
:104E70007E0102C02196ECCFC701DF91CF911F9137
:104E80000F91FF90EF90DF90CF900895FC01918DEE
:104E9000828D981761F0828DDF01A80FB11D5D969C
:104EA0008C91928D9F5F9F73928F90E008958FEF0A
:104EB0009FEF0895FC01918D828D981731F0828DBE
:104EC000E80FF11D858D90E008958FEF9FEF089515
:104ED000FC01918D228D892F90E0805C9F4F821B79
:104EE00091098F739927089580E694E00E946827BE
:104EF00021E0892B09F420E0822F0895FC01848DA4
:104F0000DF01A80FB11DA35ABF4F2C91848D90E0F3
:104F100001968F739927848FA689B7892C93A089CE
:104F2000B1898C9180648C93938D848D981306C085
:104F30000288F389E02D80818F7D80830895EF9230
:104F4000FF920F931F93CF93DF93EC0181E0888F43
:104F50009B8D8C8D981305C0E889F989808185FD2A
:104F600024C0F62E0B8D10E00F5F1F4F0F7311271B
:104F7000E02E8C8DE8120CC00FB607FCFACFE88942
:104F8000F989808185FFF5CFCE010E947E27F1CF80
:104F90008B8DFE01E80FF11DE35AFF4FF0820B8F5E
:104FA000EA89FB898081806207C0EE89FF8960837E
:104FB000E889F98980818064808381E090E0DF91D5
:104FC000CF911F910F91FF90EF900895CF93DF93B2
:104FD000EC01888D8823C9F0EA89FB89808185FDF1
:104FE00005C0A889B9898C9186FD0FC00FB607FC52
:104FF000F5CF808185FFF2CFA889B9898C9185FF93
:10500000EDCFCE010E947E27E7CFDF91CF910895AB
:1050100080E090E0892B29F00E94742781110C9484
:1050200000000895833081F028F4813099F08230B7
:10503000A1F008958730A9F08830B9F08430D1F418
:10504000809180008F7D03C0809180008F77809356
:105050008000089584B58F7702C084B58F7D84BDAC
:1050600008958091B0008F7703C08091B0008F7D4C
:105070008093B0000895CF93DF93282F30E0F9019B
:10508000E255FF4F8491F901E656FF4FD491F901A3
:10509000EA57FF4FC491CC2391F081110E9412284E
:1050A000EC2FF0E0EE0FFF1FE458FF4FA591B491F5
:1050B000EC91ED2381E090E021F480E002C080E0FB
:1050C00090E0DF91CF9108951F93CF93DF93282F26
:1050D00030E0F901E255FF4F8491F901E656FF4FA8
:1050E000D491F901EA57FF4FC491CC23C9F0162F90
:1050F00081110E941228EC2FF0E0EE0FFF1FEE58F6
:10510000FF4FA591B4918FB7F894111105C09C91F0
:10511000ED2FE095E92302C0EC91ED2BEC938FBFCE
:10512000DF91CF911F910895CF93DF9390E0FC0121
:10513000E656FF4F2491FC01EA57FF4F84918823E4
:1051400061F190E0880F991FFC01E859FF4FC5916C
:10515000D491FC01EE58FF4FA591B491611109C0A3
:105160009FB7F8948881209582238883EC912E2321
:105170000BC0623061F49FB7F8943881822F80951C
:1051800083238883EC912E2B2C939FBF06C08FB76F
:10519000F894E8812E2B28838FBFDF91CF9108955B
:1051A0003FB7F89480912F0490913004A09131047E
:1051B000B091320426B5A89B05C02F3F19F0019687
:1051C000A11DB11D3FBFBA2FA92F982F8827820F8D
:1051D000911DA11DB11DBC01CD0142E0660F771FDD
:1051E000881F991F4A95D1F708958F929F92AF9289
:1051F000BF92CF92DF92EF92FF926B017C010E94EF
:10520000D0284B015C01C114D104E104F104F1F098
:105210000E94D028DC01CB0188199909AA09BB0991
:10522000883E9340A105B10570F321E0C21AD10870
:10523000E108F10888EE880E83E0981EA11CB11CDD
:10524000C114D104E104F10419F7DDCFFF90EF9010
:10525000DF90CF90BF90AF909F908F9008952FB721
:10526000F89460912B0470912C0480912D049091FE
:105270002E042FBF08950E942F2960937805709304
:10528000790580937A0590937B0588E795E00895EA
:10529000CF92DF92EF92FF921F93CF93DF93EC01B7
:1052A00089850E943B28182F8885811303C080E0E0
:1052B00090E01EC00E942F29C880D980EA80FB8020
:1052C000DC01CB018C199D09AE09BF09CC80DD80C2
:1052D000EE80FF808C159D05AE05BF0540F30E9452
:1052E0002F29688379838A839B83188781E090E0E4
:1052F000DF91CF911F91FF90EF90DF90CF900895B5
:105300001F93CF93DF93EC01122F4C835D836E8349
:105310007F830E942F29688379838A839B83812FCF
:105320000E943B2888871987DF91CF911F910895AC
:1053300060E08CE00E94642861E08DE00C946428B9
:10534000CF93DF93C4E1D0E061E08CE00E94642859
:1053500060E08DE00E94642864E670E080E090E008
:105360000E94F5280E94982964E670E080E090E0B1
:105370000E94F528219741F7DF91CF91089500977A
:1053800069F0FC0101900020E9F73197AF01481B5B
:10539000590BBC0180E694E00C941B2780E090E060
:1053A00008950C94BF29CF93DF930E94BF29EC018D
:1053B00080E191E00E94BF298C0F9D1FDF91CF916A
:1053C00008958F929F92AF92BF920F931F93CF93A6
:1053D000DF93CDB7DEB7A1970FB6F894DEBF0FBE4F
:1053E000CDBF19A2423008F44AE08E010F5D1F4F75
:1053F000842E912CA12CB12CA50194010E949F31E7
:10540000E62FB901CA0101501109EA3014F4E05D38
:1054100001C0E95CD801EC93232B242B252B61F7E9
:10542000C8010E94BF29A1960FB6F894DEBF0FBE37
:10543000CDBFDF91CF911F910F91BF90AF909F9003
:105440008F9008950E94C7310C94D4310F931F930D
:10545000CF93DF938FEF93E00E94CC318B37B9F17C
:1054600009E211E0C0E0D0E0F80161918F012196DE
:10547000CE010E94242AC430D105B1F764E080E057
:1054800094E00E94242A6BE78FEF93E00E94242A85
:1054900083E191E00E94D3298FEF93E00E94CC3109
:1054A000682F70E080E090E04AE00E94E12980E10E
:1054B00091E00E94BF290E94A02968EB7BE080E078
:1054C00090E0DF91CF911F910F910C94F528DF911F
:1054D000CF911F910F910895CF92DF92EF92FF929B
:1054E000CF93DF9380E094E00E94CC31882309F4CD
:1054F00051C090E090935B0480935A048EE291E057
:105500000E94D129C0905A04D0905B040D2C000C4D
:10551000EE08FF08F7FE14C0E0916004F09161040A
:105520000190F081E02D6DE280E694E00995662718
:105530007727CB016C197D098E099F094AE003C0CA
:105540004AE0C701B6010E94E12980E191E00E9492
:10555000BF29CDE4D5E0E12CF12C80915A04909143
:105560005B04E816F90644F48FEFE81AF80AC7015D
:105570000E94CC318993F1CF8AE391E00E94D12936
:105580008DE495E0DF91CF91FF90EF90DF90CF9089
:105590000C94D329DF91CF91FF90EF90DF90CF90C3
:1055A00008951F920F920FB60F9211242F933F93DD
:1055B0004F935F936F937F938F939F93AF93BF931B
:1055C000EF93FF9380E694E00E947E27FF91EF9196
:1055D000BF91AF919F918F917F916F915F914F910B
:1055E0003F912F910F900FBE0F901F9018951F9213
:1055F0000F920FB60F9211242F938F939F93EF93D7
:10560000FF93E0917004F09171048081E091760441
:10561000F091770482FD12C09081809179048F5FB0
:105620008F7320917A04821751F0E0917904F0E0B1
:10563000E05AFB4F958F8093790401C08081FF91E0
:10564000EF919F918F912F910F900FBE0F901F9010
:1056500018951F920F920FB60F9211242F933F931C
:105660008F939F93AF93BF9380912B0490912C04C1
:10567000A0912D04B0912E0430912A0423E0230F31
:105680002D3720F40196A11DB11D05C026E8230F7A
:105690000296A11DB11D20932A0480932B049093A0
:1056A0002C04A0932D04B0932E0480912F0490918C
:1056B0003004A0913104B09132040196A11DB11DB6
:1056C00080932F0490933004A0933104B09332045C
:1056D000BF91AF919F918F913F912F910F900FBEEE
:1056E0000F901F9018951F920F920FB60F921124D2
:1056F0002F933F934F935F936F937F938F939F93DA
:10570000AF93BF93EF93FF93209133043091340410
:1057100080913604909137042817390748F1609139
:1057200033047091340420913504AC01420F511DB3
:1057300064177507A1F480916F008D7F80936F00CF
:10574000809181008E7F809381008091B1008E7F57
:105750008093B10060E08BE00E94642816C0409105
:10576000330450913404820F841B8093B3000DC026
:105770008091330490913404E0913804F09139041D
:10578000E80FF91FE491E093B30080913304909106
:10579000340401969093340480933304FF91EF9185
:1057A000BF91AF919F918F917F916F915F914F9139
:1057B0003F912F910F900FBE0F901F901895E0E62C
:1057C000F4E01382128288EE93E0A0E0B0E08483DC
:1057D0009583A683B78384E091E09183808385ECF1
:1057E00090E09587848784EC90E09787868780ECAB
:1057F00090E0918B808B81EC90E0938B828B82EC9C
:1058000090E0958B848B86EC90E0978B868B118E45
:10581000128E138E148E0E942F2960937805709338
:10582000790580937A0590937B05E1E6F5E08DE4B8
:1058300095E091838083168A128222E044E150E051
:1058400060E070E083E495E00E94802923E044E179
:1058500050E060E070E089E395E00E94802924E058
:1058600044E150E060E070E08FE295E00E94802922
:1058700025E044E150E060E070E085E295E00E94C0
:10588000802926E044E150E060E070E08BE195E0A3
:105890000E94802927E044E150E060E070E081E16F
:1058A00095E00E94802928E044E150E060E070E04B
:1058B00087E095E00E94802929E044E150E060E023
:1058C00070E08DEF94E00C948029789484B5826028
:1058D00084BD84B5816084BD85B5826085BD85B594
:1058E000816085BD80916E00816080936E00109212
:1058F000810080918100826080938100809181008D
:10590000816080938100809180008160809380001D
:105910008091B10084608093B1008091B00081607B
:105920008093B00080917A00846080937A008091A7
:105930007A00826080937A0080917A0081608093FF
:105940007A0080917A00806880937A001092C1007A
:10595000E0917004F091710482E08083E0916C0426
:10596000F0916D041082E0916E04F0916F048FEC61
:10597000808310927804E0917404F091750486E0BD
:105980008083E0917204F091730480818061808350
:10599000E0917204F0917304808188608083E091CB
:1059A0007204F0917304808180688083E0917204B6
:1059B000F091730480818F7D80838DE491E00E945B
:1059C000D32982E191E00E94D32984E991E00E94E9
:1059D000D32983EA91E00E94D32980ED91E00E94CF
:1059E000D3298DEF91E00E94D3298AE292E00E94B0
:1059F000D32987E592E00E94D3298BE692E00E94AA
:105A0000D32980E992E00E94D32986EB92E00E949C
:105A1000D32982E191E00E94D32984EC92E00E9494
:105A2000D32982E093E00E94D3298DE493E00E9481
:105A3000D32968EB7BE080E090E00E94F5288CE6BB
:105A400093E00E94D32961E08CE00E94942861E0F9
:105A50008DE00E94942862E082E00E94942862E037
:105A600083E00E94942862E084E00E94942862E02F
:105A700085E00E94942862E086E00E94942862E01B
:105A800087E00E94942862E088E00E94942862E007
:105A900089E00E9494280E9498290E94262A82E088
:105AA0000E943B28892B81F483E00E943B28892BAC
:105AB00059F484E00E943B28892B31F485E00E9450
:105AC0003B28892B09F40EC482E00E943B28892BD5
:105AD00059F483E00E943B28892B31F485E00E9431
:105AE0003B28892B09F40AC480915E0490915F04DD
:105AF000019711F00E946C2AC2ECD0E003EF1CE485
:105B000080EDE82E87E0F82E0E942F2980907805FE
:105B100090907905A0907A05B0907B05DC01CB01CF
:105B200088199909AA09BB0989389341A105B105CA
:105B300028F180915E0490915F04019789F410929E
:105B40005F0410925E0482E191E00E94D32988E70D
:105B500093E00E94D3290E946C2A0E94A0290EC0C3
:105B600010925D0410925C04109277051092630508
:105B70000E943B2980E093E00E94D12980915E043D
:105B800090915F04019709F4A7C020915C043091C3
:105B90005D0480915A0490915B042817390709F03D
:105BA0009BC08091610590916205FC01319120912B
:105BB0006305A4E6B5E04496332341F032131DC0DB
:105BC00031912D91E817F907B9F717C0211115C0C8
:105BD00081E993E00E94D32961E08CE00E9464286F
:105BE00060E08DE00E94642868E873E180E090E066
:105BF0000E94F5280E94982967C089E993E00E94D5
:105C0000D3290E949829D0933904C0933804109363
:105C100037040093360461E08BE00E949428809161
:105C2000B6008F798093B6008091B0008360809336
:105C3000B0008091B100877F8093B1008091B00067
:105C40008F7380688093B0008091B0008F7C8093C8
:105C5000B0008091B100887F81608093B100E091B5
:105C60003804F0913904E491E093B300F894809102
:105C70008100877E886080938100809180008C7F86
:105C80008093800080918100887F81608093810073
:105C9000F0928900E092880080916F00826080938A
:105CA0006F00E0913604F091370431978091380409
:105CB00090913904E80FF91FE491E09335041092B4
:105CC000340410923304789410925D0410925C04B2
:105CD000109277051092630583E495E00E944829AD
:105CE00089E395E00E9448298FE295E00E944829C7
:105CF00085E295E00E9448298BE195E00E944829C1
:105D000081E195E00E94482987E095E00E944829BA
:105D10008DEF94E00E94482920915E0430915F0449
:105D200080914B0590E0909359048093580421157D
:105D3000310509F036C1892BC1F480915604909148
:105D40005704892B91F081E30E94062780915C041F
:105D500090915D04019690935D0480935C040E9491
:105D60003B2989E692E00E94D129809158049091C4
:105D7000590490935704809356048091410590E014
:105D80009093550480935404892BC1F4809152045C
:105D900090915304892B91F082E30E940627809111
:105DA0005C0490915D04019690935D0480935C0483
:105DB0000E943B298EE892E00E94D12980915404F0
:105DC0009091550490935304809352048091370529
:105DD00090E09093510480935004892BC1F48091FA
:105DE0004E0490914F04892B91F083E30E94062783
:105DF00080915C0490915D04019690935D04809382
:105E00005C040E943B2984EB92E00E94D12980919E
:105E100050049091510490934F0480934E048091CC
:105E20002D0590E090934D0480934C04892BC1F490
:105E300080914A0490914B04892B91F084E30E9455
:105E4000062780915C0490915D04019690935D0417
:105E500080935C040E943B298CE291E00E94D1294E
:105E600080914C0490914D0490934B0480934A048C
:105E70008091230590E09093490480934804892BF6
:105E8000C1F48091460490914704892B91F085E3F9
:105E90000E94062780915C0490915D040196909386
:105EA0005D0480935C040E943B298FE993E00E948B
:105EB000D12980914804909149049093470480939C
:105EC00046048091190590E0909345048093440422
:105ED000892BC1F48091420490914304892B91F065
:105EE00086E30E94062780915C0490915D040196F0
:105EF00090935D0480935C040E943B298EEC91E0BA
:105F00000E94D129809144049091450490934304C8
:105F10008093420480910F0590E090934104809318
:105F20004004892BC1F480913E0490913F04892B59
:105F300091F087E30E94062780915C0490915D04B4
:105F4000019690935D0480935C040E943B298BEF43
:105F500091E00E94D1298091400490914104909356
:105F60003F0480933E048091050590E090933D04AA
:105F700080933C04892B09F0AAC180913A04909146
:105F80003B04892B09F4A3C188E30E940627809172
:105F90005C0490915D04019690935D0480935C0491
:105FA00090C1892B09F58091560490915704892B53
:105FB000D9F02130310591F480915A0490915B041D
:105FC000019690935B0480935A0461E30E94242A13
:105FD00060915A0480E094E00E94242A0E943B29A8
:105FE00089E692E00E94D129809158049091590449
:105FF00090935704809356048091410590E09093CC
:10600000550480935404892B21F58091520490917A
:106010005304892BF1F080915E0490915F04019705
:1060200091F480915A0490915B04019690935B04E3
:1060300080935A0462E30E94242A60915A0480E00B
:1060400094E00E94242A0E943B298EE892E00E945C
:10605000D1298091540490915504909353048093D6
:1060600052048091370590E090935104809350043E
:10607000892B21F580914E0490914F04892BF1F0EA
:1060800080915E0490915F04019791F480915A048D
:1060900090915B04019690935B0480935A0463E3B0
:1060A0000E94242A60915A0480E094E00E94242AED
:1060B0000E943B2984EB92E00E94D12980915004F8
:1060C0009091510490934F0480934E0480912D053C
:1060D00090E090934D0480934C04892B21F580919E
:1060E0004A0490914B04892BF1F080915E049091C9
:1060F0005F04019791F480915A0490915B0401969A
:1061000090935B0480935A0464E30E94242A609174
:106110005A0480E094E00E94242A0E943B298CE2E9
:1061200091E00E94D12980914C0490914D0490936C
:106130004B0480934A048091230590E09093490496
:1061400080934804892B21F580914604909147045F
:10615000892BF1F080915E0490915F04019791F496
:1061600080915A0490915B04019690935B04809314
:106170005A0465E30E94242A60915A0480E094E066
:106180000E94242A0E943B298FE993E00E94D12992
:106190008091480490914904909347048093460469
:1061A0008091190590E09093450480934404892BD5
:1061B00021F58091420490914304892BF1F0809164
:1061C0005E0490915F04019791F480915A0490913C
:1061D0005B04019690935B0480935A0466E30E94EB
:1061E000242A60915A0480E094E00E94242A0E94AC
:1061F0003B298EEC91E00E94D1298091440490913A
:106200004504909343048093420480910F0590E0ED
:106210009093410480934004892B21F580913E04A2
:1062200090913F04892BF1F080915E0490915F047E
:10623000019791F480915A0490915B040196909398
:106240005B0480935A0467E30E94242A60915A04F5
:1062500080E094E00E94242A0E943B298BEF91E089
:106260000E94D129809140049091410490933F0471
:1062700080933E048091050590E090933D048093C7
:106280003C04892B21F580913A0490913B04892BA1
:10629000F1F080915E0490915F04019791F48091F8
:1062A0005A0490915B04019690935B0480935A0486
:1062B00068E30E94242A60915A0480E094E00E94DE
:1062C000242A0E943B2988E292E00E94D1298091F1
:1062D0003C0490913D0490933B0480933A040E94C7
:1062E000082812CC81EA93E00E94D32960E08FEF66
:1062F00093E00E94242A0E94262AE6CB81E090E0C7
:1063000090935F0480935E0410925B0410925A0491
:106310008FEB93E00E94D32960E08DE00E94642817
:1063200060ED77E080E090E00E94F5280E94A029CF
:106330008AEE93E00E94D3290E943B29D5CBA1E2AB
:106340001A2EAA1BBB1BFD010DC0AA1FBB1FEE1FEF
:10635000FF1FA217B307E407F50720F0A21BB30B3A
:10636000E40BF50B661F771F881F991F1A9469F7B6
:1063700060957095809590959B01AC01BD01CF0112
:106380000895EE0FFF1F0590F491E02D099481E030
:1063900090E0F8940C94E231F999FECF92BD81BD62
:1063A000F89A992780B50895262FF999FECF1FBA3C
:1063B00092BD81BD20BD0FB6F894FA9AF99A0FBE2E
:0863C00001960895F894FFCF47
:1063C800000000009F271B27682746275A27E62733
:1063D8000D0A0064656661756C742070617373776B
:1063E8006F7264207365743A203132333400636FFE
:1063F80064654C656E677468200043757272656EDB
:10640800742050617373636F64653A200050726F33
:106418006772616D6D61626C65204D756C74692D74
:10642800427574746F6E20436F6D626F204C6F639A
:106438006B2032303136202D5369676D617A4067A1
:106448006D61696C2E636F6D284A6F6E204272759C
:106458006E6F29002D2D2D50494E4F5554532D2D1B
:106468002D200050575F50494E30283129202D20CB
:1064780050696E2032202020202020202050575F95
:1064880050494E34283529202D2050696E20360079
:1064980050575F50494E31283229202D2050696EBF
:1064A8002033202020202020202050575F50494EA4
:1064B80035283629202D2050696E20370050575F27
:1064C80050494E32283329202D2050696E2034201F
:1064D8002020202020202050575F50494E36283752
:1064E80029202D2050696E20380050575F50494EA2
:1064F80033283429202D2050696E20352020202073
:106508002020202050575F50494E37283829202D09
:106518002050696E20390042757A7A65725F706919
:106528006E202D2050696E203131004C6F636B5FF7
:1065380050696E3020286C6F77207768656E206C04
:106548006F636B656429202D2050696E20313200FD
:106558004C6F636B5F50696E3120286869676820EB
:106568007768656E206C6F636B656429202D2050F9
:10657800696E203133002D2D2D2D2D2D2D2D2D2DF6
:106588002D2D2D00507265737320616E6420686F25
:106598006C642050696E7320322C203320616E6445
:1065A8002035206C6F7720746F20656E74657220BB
:1065B80070726F6772616D6D696E67206D6F64656B
:1065C8002E00507265737320616E6420686F6C646E
:1065D8002050696E7320322C20332C203420616EB9
:1065E800642035206C6F7720746F20726573657432
:1065F80020746F20666163746F72792064656661C8
:10660800756C742070617373776F72640050617574
:1066180073696E672033205365636F6E64732066F9
:106628006F72207265636F7665727900496E69745E
:1066380069616C697A6564004C656176696E67208A
:1066480070726F6772616D6D696E67206D6F6465DA
:1066580000537563636573730057726F6E67003517
:1066680000526573657474696E6720746F20646581
:106678006661756C742070617373776F726400451E
:106688006E746572696E672070726F6772616D6D86
:10669800696E67206D6F64652C2072656C65617327
:1066A8006520627574746F6E7300456E7465722030
:1066B8006E65772073657175656E63652E20357319
:1066C80065632E20627574746F6E2074696D656FD2
:1066D80075742072657365747320746F206E6F72A1
:0A66E8006D616C206D6F64652E007B
:107E0000112484B714BE81FFF0D085E080938100F7
:107E100082E08093C00088E18093C10086E0809377
:107E2000C20080E18093C4008EE0C9D0259A86E02C
:107E300020E33CEF91E0309385002093840096BBD3
:107E4000B09BFECF1D9AA8958150A9F7CC24DD24C4
:107E500088248394B5E0AB2EA1E19A2EF3E0BF2EE7
:107E6000A2D0813461F49FD0082FAFD0023811F036
:107E7000013811F484E001C083E08DD089C08234E0
:107E800011F484E103C0853419F485E0A6D080C0E4
:107E9000853579F488D0E82EFF2485D0082F10E0AE
:107EA000102F00270E291F29000F111F8ED06801E7
:107EB0006FC0863521F484E090D080E0DECF843638
:107EC00009F040C070D06FD0082F6DD080E0C81688
:107ED00080E7D80618F4F601B7BEE895C0E0D1E017
:107EE00062D089930C17E1F7F0E0CF16F0E7DF06D8
:107EF00018F0F601B7BEE89568D007B600FCFDCFD4
:107F0000A601A0E0B1E02C9130E011968C91119780
:107F100090E0982F8827822B932B1296FA010C0160
:107F200087BEE89511244E5F5F4FF1E0A038BF0790
:107F300051F7F601A7BEE89507B600FCFDCF97BE46
:107F4000E89526C08437B1F42ED02DD0F82E2BD052
:107F50003CD0F601EF2C8F010F5F1F4F84911BD097
:107F6000EA94F801C1F70894C11CD11CFA94CF0C13
:107F7000D11C0EC0853739F428D08EE10CD085E9AC
:107F80000AD08FE07ACF813511F488E018D01DD067
:107F900080E101D065CF982F8091C00085FFFCCF94
:107FA0009093C60008958091C00087FFFCCF809118
:107FB000C00084FD01C0A8958091C6000895E0E648
:107FC000F0E098E1908380830895EDDF803219F02E
:107FD00088E0F5DFFFCF84E1DECF1F93182FE3DFCA
:107FE0001150E9F7F2DF1F91089580E0E8DFEE27F6
:047FF000FF270994CA
:027FFE00040479
:0400000300007E007B
:00000001FF
